:100000006AC084C083C082C081C080C07FC07EC0FF
:100010007DC07CC0E0C17AC079C08CC364C40002DA
:1000200003050608090B0C0E101113141617191AE4
:100030001C1D1F202223252628292B2C2E2F313250
:1000400033353638393A3C3D3F40414344454748D3
:10005000494A4C4D4E4F51525354555658595A5B7C
:100060005C5D5E5F606162636465666768696A6A59
:100070006B6C6D6E6F6F7071717273737475757672
:100080007677787879797A7A7A7B7B7C7C7C7D7DCF
:100090007D7D7E7E7E7E7E7F7F7F7F7F7F7F7F4CAC
:1000A0004344726549446572353020323031332D16
:1000B00031322D32332030333A33313A333900453F
:1000C000464765666700202B2D2E3031323334359C
:1000D00036373839680011241FBECFE5D1E0DEBFC6
:1000E000CDBF10E0A0E6B0E0EAE0FFE002C005907E
:1000F0000D92A83EB107D9F711E0A8EEB0E001C01B
:100100001D92A531B107E1F7C8D3FDC679CF60E0F4
:1001100072E018D69C0137FF02C020503E4F2038B5
:1001200031058CF02F3F310529F024F051E02038C3
:1001300035073CF480E091E0AC01421B530B9A017F
:1001400002C020503240C9010895E1DF97FD02C08E
:1001500020E004C0909581959F4F21E0825E9F4FE3
:10016000FC018491211181950895682F882309F459
:1001700061E08CE990E070E0E5D5709361006093F8
:100180006000089560916000709161008CE990E0DA
:10019000C5D5862F0895A895209108018091620009
:1001A000992787FD9095820F911D8F3F910534F01F
:1001B0008FEF809362008FEF90E008951816190674
:1001C0002CF081E08093620080E090E008958093BD
:1001D000E8000895EF92FF920F931F933091E8008B
:1001E000432F50E0BA01607F70706115710529F0EE
:1001F000FA01EF70F070309771F44F705070411544
:10020000510519F01092EB0006C06115710519F047
:1002100021E02093EB002091EB00211132953F70FB
:100220006091EC00762F76954091ED005091EE00B4
:10023000731780F49C01241B350BA90139E0453C60
:10024000530760F19093EE008093ED006F5F609331
:10025000EC0024C0BC01641B750B7B0100E010E0C6
:1002600040E25EE460E070E0022E04C0440F551FDF
:10027000661F771F0A94D2F74E155F056007710756
:1002800068F41092EC009093EE008093ED001092D1
:10029000EB00222319F481E08093EB008091EC00C5
:1002A000809581701F910F91FF90EF900895B998FC
:1002B000C19A00000000000086B386958170089501
:1002C00085E091E060E066D00895CF93DF93E8D0B9
:1002D000EB014091E9005091EA009B01241B350B92
:1002E000A90120916000309161002417350748F47E
:1002F0007093EA006093E9004EDF682F85E091E09B
:1003000049D08091E800882319F0CE0163DF03C053
:1003100085E091E048D0882321F0B998C19A81E026
:1003200003C0C198B99A80E0DF91CF910895CDDFE5
:100330000895A89588E10FB6F89481BD11BC0FBE51
:10034000C198B99A85E091E060E04FEF17D080E066
:100350000CDFC2D084B786958695869580FF02C053
:1003600080E203DF04B600FC07C084B7869586955B
:1003700080FF02C080E1F9DE14BE0895FC01118205
:10038000108242838281861710F0638308958281F0
:1003900083830895FC018281861710F0638308959A
:1003A000828183830895FC0180819181181619064A
:1003B00014F080E008C0808191812281821B910924
:1003C0009183808381E0208131819381290F311DC8
:1003D0003183208308951F920F920FB60F9211243C
:1003E0008F939F93AF93BF938091EF009091F00014
:1003F000A091F100B091F2000196A11DB11D809372
:10040000EF009093F000A093F100B093F200BF9141
:10041000AF919F918F910F900FBE0F901F901895E5
:10042000AF92BF92CF92DF92EF92FF920F931F9302
:10043000CF93DF937B018C01EA01F89482B780931C
:10044000F300A090EF00B090F000C090F100D090C9
:10045000F200789404C0209711F0FE010995F894F9
:1004600082B78093F3008091EF009091F000A0910B
:10047000F100B091F20078948A199B09AC09BD098A
:100480008E159F05A007B10730F3DF91CF911F9123
:100490000F91FF90EF90DF90CF90BF90AF900895B5
:1004A000F89482B78093F3002091EF003091F00030
:1004B0004091F1005091F2007894B901CA01089579
:1004C0008091F30090E064E670E00AD460916300EC
:1004D00070E024D4862F089583E68093630091E032
:1004E0009093640089BD80E062E07AD080E063E0B0
:1004F0004ED080E060E041E0A0D00895843010F05C
:1005000081E008956F3010F082E008958295807F39
:10051000862B50E0342F3295330F330F307C94E02C
:10052000440F551F9A95E1F7407360E070E021E0B9
:10053000922F906F9823E92FF0E0EF70F0703097D2
:10054000F1F0923079F0933018F4913029F406C02C
:10055000913169F0923179F083E008959AB59F73F3
:10056000932B03C09AB59F7C942B9ABD08C090B77B
:100570009F73932B03C090B79F7C942B90BF220F47
:100580006F5F7F4F6430710599F680E00895823087
:1005900028F5663081F0673028F4662351F0633027
:1005A000E9F405C0683049F06A30C1F408C092E04F
:1005B00007C091E005C093E003C094E001C095E05E
:1005C0009770813029F083B7887F892B83BF04C05F
:1005D00080B7887F892B80BF80E0089581E00895EF
:1005E0006430B8F48823A9F4862F817019F08AB595
:1005F000816002C08AB58E7F8ABD8AB5627019F0AB
:100600008AB5826002C08AB58D7F8ABD8AB580E0D6
:10061000089581E008950F931F93182F062F642FDC
:10062000DFDF882311F0806105C0812F602FAFDFED
:10063000811180621F910F910895843010F081E044
:100640000895623010F082E00895442311F041E0F3
:10065000F8948295807F860F8130A1F0813030F050
:100660008031E1F0813131F183E00895442319F0C4
:1006700089B7806102C089B78F7E89BF89B788B783
:10068000806123C0442319F089B7886002C089B70C
:10069000877F89BF89B788B7886017C0442319F05E
:1006A00089B7806402C089B78F7B89BF89B788B753
:1006B00080640BC0442319F089B7806202C089B7F7
:1006C0008F7D89BF89B788B7806288BF442311F4C2
:1006D00080E00895789480E00895F894882321F0CC
:1006E000813041F081E0089589B7826089BF88B781
:1006F000826005C089B7846089BF88B7846088BF7D
:10070000789480E008951092F90080EE8EB988EA1E
:100710008DB9C09AC29AB898BA9A089581E0809328
:10072000F90080E48EB988EF8DB98FE88EB908950D
:10073000EADF08951F920F920FB60F9211248F9344
:100740008091FD008F5F8093FD00B898BA9A81E098
:100750008093F90080E48EB988EF8DB98FE88EB967
:100760008F910F900FBE0F901F901895E5E6F0E067
:1007700080E09191890F90E0E43EF907D1F78195EF
:100780008093E40008950F931F93CF93DF9300E0CD
:1007900010E0C0E0D0E0FE01EC50FF4F8081DE01B0
:1007A000AF5FBE4F8C936081C801875F9E4FF2DDC3
:1007B00021960C5F1F4FC330D10569F789E091E0A6
:1007C000F2DD882311F0C49801C0C49A8DE091E055
:1007D000EADD882311F0C39801C0C39A81E191E05A
:1007E000E2DD882311F0C19801C0C19ADF91CF9159
:1007F0001F910F910895809104018F5F80930401F0
:100800008F3F49F48091E6009091E7000196909324
:10081000E7008093E6008091E6009091E70023E0F6
:100820008030920721F41092E7001092E600809148
:10083000E6009091E70042E08030940734F480585D
:10084000904083DC81588093F4008091E600909181
:10085000E7009C012150314041E02F3F340730F444
:100860008058914072DC81588093F5008091E600B9
:100870009091E70022E0813092071CF0805892406E
:1008800006C08F3F910509F034F480589F4F5DDC1E
:1008900081588093F60077DF0895CF93DF93C0E00F
:1008A000D0E0CE01875F9E4F60E04FEF67DD24967A
:1008B000CC30D105B1F73DDD80E057DC57DF23DFD9
:1008C000BC9ABB9AC49AC39A80910001882341F4D0
:1008D0008091E800882311F0F8DCF6CF8CDFF4CFAC
:1008E000B99A51DFF1CF1F920F920FB60F921124D8
:1008F0002F933F934F935F936F937F938F939F9328
:10090000AF93BF93EF93FF938091F900823089F00A
:10091000833020F4813009F0B2C006C0833009F181
:10092000843009F0ACC05DC082E08093F90080ECB7
:1009300014C01092FF008FB1982F91709093FA001D
:1009400086958093FE00803611F0803541F41FB803
:10095000B89A83E08093F9008EE48EB993C0D3DE19
:1009600091C08091FA00882311F4B89835C09FB1E6
:100970008091FF00882329F08091FD00805F8093A3
:10098000FD0090FD26C08091FE00803589F4909195
:10099000F800E92FF0E0EB59FF4F80811092000141
:1009A0009F5F9093F8009038A9F41092F80012C05D
:1009B000803679F49091F700E92FF0E0EC50FF4F8A
:1009C00080819F5F9093F700933021F41092F7009D
:1009D00001C08FEF8FB9B89A84E08093F90080E46A
:1009E000BCCF9091FF009F5F9093FF008091FA0031
:1009F0008823F1F58FB12091FE002035B1F49130BC
:100A000021F48F778093F8002BC09091F800E92FA4
:100A1000F0E0EB59FF4F8083892F8F5F8093F800C0
:100A20008038F1F41092F8001BC02036C9F421E0A0
:100A300020930001913029F463E064D19093F70092
:100A40000FC09091F700E92FF0E0EC50FF4F80834A
:100A5000892F8F5F8093F700833011F41092F70095
:100A60008091FC008093FD008FE38FB9B89A03C09A
:100A7000B8988FEF8FB98EE48EB983E001C087E715
:100A80008093F9008091FA00882351F08091F90059
:100A9000843031F48091FE00803511F480E097DBE2
:100AA000FF91EF91BF91AF919F918F917F916F9146
:100AB0005F914F913F912F910F900FBE0F901F901C
:100AC0001895ABE0B0E0E6E6F5E053C16C014B01F0
:100AD0007A01FC0117821682838181FD08C02FEF05
:100AE0003FEFFAC022E030E0E20EF31E04C05E01E8
:100AF0000894A11CB11CF6017380F40173FC85916C
:100B000073FE81914F01882309F4E3C0853251F4CB
:100B100073FC059173FE01914F01053211F010E055
:100B20001AC085E290E029C0002309F4D2C086EC07
:100B300090E0602F70E050D1009739F4033211F447
:100B4000106103C00C3661F41068F40173FC059168
:100B500073FE01914F0117FFE7CF002309F4B9C0DD
:100B60008FEB90E0602F70E037D1009749F024E0E0
:100B700030E0E20EF31E8FE390E0B60138D1BBCF38
:100B8000033629F0033771F00335E1F40AC0870119
:100B90000E5F1F4FF70180819181B60128D1780146
:100BA000AACF1160F7016080718003C090E0B601A8
:100BB0001ED1F30110FD859110FF81913F01882323
:100BC000A9F790CF043611F0093629F517FF08C0B0
:100BD000F701608171818281938124E030E00AC055
:100BE000F70120813181B901882777FD8095982F01
:100BF00022E030E0E20EF31E1F7E97FF08C09095C2
:100C00008095709561957F4F8F4F9F4F1064A50120
:100C10002AE030E033C00037A9F0013730F408355E
:100C2000B1F00F3609F055C006C0053739F0083766
:100C300009F04FC008C028E030E00CC01F7E2AE059
:100C400030E008C01061146220E130E003C014609D
:100C500020E132E017FF08C0F701608171818281D5
:100C6000938144E050E007C0F7016081718180E02A
:100C700090E042E050E0E40EF51EA501E4D0082F1C
:100C80000A19612E772416FF04C08DE290E0B601A8
:100C9000AED064FE13C0FE01E00FF11D80818033F1
:100CA00069F080E390E0B601A2D062FE07C0C30104
:100CB00080729070885A9F4FB60199D00150F5010B
:100CC000E00FF11D808190E0B60191D00023B1F7D3
:100CD00012CFF60126813781C9012B96EEE065C05F
:100CE0005527002480FF02C0060E571F660F771F8E
:100CF0006115710521F096958795009799F7952FC5
:100D0000802D0895991B79E004C0991F961708F06B
:100D1000961B881F7A95C9F780950895AA1BBB1B5F
:100D200051E107C0AA1FBB1FA617B70710F0A61BEB
:100D3000B70B881F991F5A95A9F780959095BC010C
:100D4000CD01089597FB092E07260AD077FD04D020
:100D5000E5DF06D000201AF4709561957F4F089565
:100D6000F6F7909581959F4F08952F923F924F925D
:100D70005F926F927F928F929F92AF92BF92CF922B
:100D8000DF92EF92FF920F931F93CF93DF93CDB734
:100D9000DEB7CA1BDB0B0FB6F894DEBF0FBECDBFAC
:100DA00009942A88398848885F846E847D848C847D
:100DB0009B84AA84B984C884DF80EE80FD800C8186
:100DC0001B81AA81B981CE0FD11D0FB6F894DEBF69
:100DD0000FBECDBFED010895FC010590061621F070
:100DE0000020D9F7C00108953197CF0108950F93DE
:100DF0001F93CF93DF938C01EB018B8181FF1BC08D
:100E000082FF0DC02E813F818C819D81281739077B
:100E100064F4E881F9810193F983E88306C0E885E9
:100E2000F985802F0995009731F48E819F81019675
:100E30009F838E8302C00FEF1FEFC801DF91CF9118
:100E40001F910F910895FA01AA27283061F12031EE
:100E500091F1E8946F936E7F6E5F7F4F8F4F9F4F3E
:100E6000AF4FB1E040D0B4E03ED0670F781F891F8C
:100E70009A1FA11D680F791F8A1F911DA11D6A0F5E
:100E8000711D811D911DA11D22D009F468943F910F
:100E9000062E000C3019000C000C3019305D319317
:100EA000CEF6CF010895462F4770405D4193B3E0E1
:100EB0000FD0C9F7F6CF462F4F70405D4A3318F078
:100EC000495D31FD4052419302D0A9F7EACFB4E029
:100ED000A6959795879577956795BA95C9F70097E1
:100EE0006105710508959B01AC010A2E0694579582
:100EF000479537952795BA95C9F7620F731F841FD9
:0A0F0000951FA01D0895F894FFCF7F
:100F0A009C0001640100FFFFFFFFFFFF0034A850AF
:100F1A00010000000000170103801912780AAF408F
:100F2A0095564A8F25205054000000010101010105
:100F3A000101010101010101010101102778985005
:100F4A001A084010100200F5B8000000180000004E
:100F5A001000000000000000000000000000000077
:100F6A000000100000000000000000000000000067
:100F7A0000000000FC006D65684C54443132314B6E
:080F8A004D374B0075FF02001A
:00000001FF
